:100000000C94A7000C94C4000C94C4000C94C4007D
:100010000C94C4000C948D090C94C4000C94C4007E
:100020000C94C4000C94BF130C94C4000C943A09B3
:100030000C94C4000C94C4000C94C4000C94C40030
:100040000C94C4000C94C4000C94C4000C94C40020
:100050000C94C40000407A10F35A00A0724E1809A4
:100060000010A5D4E80000E87648170000E40B541F
:10007000020000CA9A3B000000E1F50500008096EE
:100080009800000040420F000000A0860100000020
:10009000102700000000E8030000000064000000DA
:1000A00000000A00000000000100000000002C76A3
:1000B000D888DC674F0823DFC1DFAE59E1B1B796BE
:1000C000E5E3E453C63AE651997696E8E6C284261B
:1000D000EB898C9B62ED407C6FFCEFBC9C9F40F2F7
:1000E000BAA56FA5F490055A2AF75C936B6CF96773
:1000F0006DC11BFCE0E40D47FEF520E6B500D0ED38
:10010000902E0300943577050080841E080000209F
:100110004E0A000000C80C333333330F986E12833D
:100120001141EF8D2114893BE65516CFFEE6DB1811
:10013000D1844B381BF77C1D901DA4BBE4242032D6
:1001400084725E228100C9F124ECA1E53D271124CF
:100150001FBECFE5D8E0DEBFCDBF11E0A0E6B0E026
:10016000E4EEF4E302C005900D92AA3FB107D9F77F
:1001700012E0AAEFB1E001C01D92AC34B107E1F783
:100180000E94D6130C94701A0C940000EF92FF9208
:100190000F931F937B018C0120E030E040E05FE48F
:1001A0000E94720488238CF0C801B70120E030E07F
:1001B00040E05FE40E943E020E9430059B01AC01DA
:1001C000205030404040504806C0C801B7010E944E
:1001D00030059B01AC01B901CA011F910F91FF903D
:1001E000EF900895A0E0B0E0E8EFF0E00C94DE17A7
:1001F000DC012B01FA019C91923008F439C1EB012A
:100200008881823008F433C1943069F4843009F075
:100210002FC111969C9111978981981709F428C1D3
:10022000AEEDB0E025C1843009F421C18230A9F4DB
:10023000923009F01DC19A01AD0188E0EA010990F0
:10024000AE01E90109929E018150C1F7E201898165
:1002500011969C918923818308C1923009F407C1CA
:1002600012962D903C901397EB018A819B811496F6
:10027000AD90BD90CD90DC901797EC80FD800E8105
:100280001F819101281B390BB90137FF04C0662774
:100290007727621B730B603271050CF061C0121678
:1002A00013066CF537014801062E04C09694879416
:1002B000779467940A94D2F721E030E040E050E070
:1002C00004C0220F331F441F551F6A95D2F72150D7
:1002D0003040404050402E213F21402351232115E2
:1002E00031054105510521F021E030E040E050E0CA
:1002F00079018A01E628F728082919293CC0232B0F
:10030000D1F1260E371E35014601062E04C0969403
:100310008794779467940A94D2F721E030E040E024
:1003200050E004C0220F331F441F551F6A95D2F7B7
:1003300021503040404050402A213B214C215D213A
:10034000211531054105510521F021E030E040E063
:1003500050E059016A01A628B728C828D9280BC03F
:10036000821593052CF01C01AA24BB24650103C04F
:10037000EE24FF24870111969C91D20111968C9155
:10038000981709F445C0992339F0A80197012A1953
:100390003B094C095D0906C0A60195012E193F09CC
:1003A000400B510B57FD08C01182338222822483F7
:1003B0003583468357831DC081E081833382228247
:1003C00088279927DC01821B930BA40BB50B848330
:1003D0009583A683B7830DC0220F331F441F551F7B
:1003E0002483358346835783828193810197938346
:1003F00082832481358146815781DA01C9010197C1
:10040000A109B1098F5F9F4FAF4FBF4328F30BC0C6
:10041000918333822282EA0CFB1C0C1D1D1DE48299
:10042000F5820683178383E08083248135814681AA
:10043000578157FF1AC0C901AA2797FDA095BA2F67
:1004400081709070A070B07056954795379527953C
:10045000822B932BA42BB52B84839583A683B78300
:1004600082819381019693838283DF0101C0D2014F
:10047000CD01CDB7DEB7E2E10C94FA17A0E2B0E00F
:10048000E4E4F2E00C94EA1769837A838B839C831B
:100490002D833E834F835887E9E0EE2EF12CEC0E3E
:1004A000FD1ECE010196B7010E9421078E010F5E4D
:1004B0001F4FCE010596B8010E9421078A8991E05D
:1004C00089278A8BC701B801AE01475E5F4F0E9442
:1004D000F2000E944C06A096E6E00C940618A0E2FA
:1004E000B0E0E5E7F2E00C94EA1769837A838B8346
:1004F0009C832D833E834F835887F9E0EF2EF12CA8
:10050000EC0EFD1ECE010196B7010E9421078E015F
:100510000F5E1F4FCE010596B8010E942107C7014B
:10052000B801AE01475E5F4F0E94F2000E944C0688
:10053000A096E6E00C940618A0E2B0E0E2EAF2E051
:100540000C94DE1769837A838B839C832D833E838F
:100550004F835887CE010196BE01675F7F4F0E948F
:100560002107CE010596BE016F5E7F4F0E942107D5
:100570009985923088F089898230C8F0943019F4D6
:10058000823051F404C0843029F4923081F48EED2D
:1005900090E0C6C0923049F420E09A858A89981389
:1005A00021E02A87CE010996BBC0823049F420E0C1
:1005B0009A858A89981321E02A8BCE014196B0C092
:1005C0002D843E844F8458886D887E888F88988CCF
:1005D000EE24FF248701AA24BB24650140E050E0FB
:1005E00060E070E0E0E0F0E0C10181709070892B84
:1005F000E9F0E60CF71C081D191D9A01AB012A0D44
:100600003B1D4C1D5D1D80E090E0A0E0B0E0E614D5
:10061000F7040805190520F481E090E0A0E0B0E0BF
:10062000BA01A901480F591F6A1F7B1FAA0CBB1CE6
:10063000CC1CDD1C97FE08C081E090E0A0E0B0E09B
:10064000A82AB92ACA2ADB2A3196E032F10549F0F4
:10065000660C771C881C991C5694479437942794F1
:10066000C3CFFA85EA892B893C898B859C85280F25
:10067000391F2E5F3F4F17C0CA0181709070892BC0
:1006800061F016950795F794E79480E090E0A0E07C
:10069000B0E8E82AF92A0A2B1B2B7695679557951F
:1006A00047952F5F3F4F77FDE7CF0CC0440F551F95
:1006B000661F771F17FD4160EE0CFF1C001F111F06
:1006C00021503040403090E0590790E0690790E4B5
:1006D000790760F32B8F3C8FDB01CA018F77907015
:1006E000A070B07080349105A105B10561F447FD9B
:1006F0000AC0E114F1040105110529F0405C5F4FC7
:100700006F4F7F4F40781A8EFE1711F081E08A8F6D
:100710004D8F5E8F6F8F78A383E0898FCE014996CE
:100720000E944C06A096E2E10C94FA17A8E1B0E012
:10073000ECE9F3E00C94E61769837A838B839C835E
:100740002D833E834F835887B9E0EB2EF12CEC0EBE
:10075000FD1ECE010196B7010E9421078E010F5E9A
:100760001F4FCE010596B8010E942107298522302E
:1007700008F47EC03989323010F4B8017CC08A8513
:100780009A8989278A87243011F0223031F423177F
:1007900009F06EC06EED70E06EC0343039F41D8625
:1007A0001E861F86188A1C861B8604C0323021F4E0
:1007B00084E08987B7015FC02B853C858B899C8944
:1007C000281B390B3C872B87ED84FE840F85188905
:1007D000AD88BE88CF88D88CEA14FB040C051D05B3
:1007E00040F4EE0CFF1C001F111F215030403C87CD
:1007F0002B8720E030E040E050E080E090E0A0E097
:10080000B0E460E070E0EA14FB040C051D0540F064
:10081000282B392B4A2B5B2BEA18FB080C091D09E6
:10082000B695A79597958795EE0CFF1C001F111F95
:100830006F5F7F4F6F31710531F7DA01C9018F7733
:100840009070A070B07080349105A105B10561F47D
:1008500027FD0AC0E114F1040105110529F0205C0F
:100860003F4F4F4F5F4F20782D873E874F87588BE4
:10087000BE01675F7F4FCB010E944C066896EAE09D
:100880000C940218A8E1B0E0E8E4F4E00C94EA1754
:1008900069837A838B839C832D833E834F83588720
:1008A00089E0E82EF12CEC0EFD1ECE010196B70179
:1008B0000E9421078E010F5E1F4FCE010596B801E1
:1008C0000E9421078985823040F08989823028F092
:1008D000C701B8010E94990701C08FEF6896E6E052
:1008E0000C940618A8E1B0E0E8E7F4E00C94EA17ED
:1008F00069837A838B839C832D833E834F835887C0
:1009000089E0E82EF12CEC0EFD1ECE010196B70118
:100910000E9421078E010F5E1F4FCE010596B80180
:100920000E9421078985823040F08989823028F031
:10093000C701B8010E94990701C08FEF6896E6E0F1
:100940000C940618A8E1B0E0E8EAF4E00C94EA1789
:1009500069837A838B839C832D833E834F8358875F
:1009600089E0E82EF12CEC0EFD1ECE010196B701B8
:100970000E9421078E010F5E1F4FCE010596B80120
:100980000E9421078985823040F08989823028F0D1
:10099000C701B8010E94990701C081E06896E6E0AE
:1009A0000C940618A8E0B0E0E8EDF4E00C94E7172A
:1009B0009B01AC0183E08983DA01C9018827B7FD77
:1009C00083959927AA27BB27B82E21153105410504
:1009D000510519F482E089833AC08823A9F02030B8
:1009E00080E0380780E0480780E8580729F460E095
:1009F00070E080E09FEC30C0EE24FF248701E21A13
:100A0000F30A040B150B02C079018A018EE1C82E8E
:100A1000D12CDC82CB82ED82FE820F831887C80145
:100A2000B7010E94FD0501971816190684F4082ED7
:100A300004C0EE0CFF1C001F111F0A94D2F7ED82B8
:100A4000FE820F831887C81AD90ADC82CB82BA8249
:100A5000CE0101960E944C062896E9E00C940318FA
:100A6000ACE0B0E0E6E3F5E00C94EE1769837A833E
:100A70008B839C83CE010196BE016B5F7F4F0E94EA
:100A800021078D81823061F1823050F1843021F470
:100A90008E81882351F12EC02F81388537FD20C0EB
:100AA0006E812F3131051CF06623F9F023C08EE1F1
:100AB00090E0821B930B29853A854B855C8504C0A9
:100AC00056954795379527958A95D2F76623B1F0C5
:100AD00050954095309521953F4F4F4F5F4F0EC039
:100AE00020E030E040E050E009C02FEF3FEF4FEF53
:100AF0005FE704C020E030E040E050E8B901CA01FF
:100B00002C96E2E00C940A18A8E0B0E0EAE8F5E0E0
:100B10000C94E6177B018C01611571058105910527
:100B200019F482E0898360C083E089838EE1C82E56
:100B3000D12CDC82CB82ED82FE820F831887C80124
:100B4000B7010E94FD05FC013197F7FF3BC022274A
:100B500033272E1B3F0B57016801022E04C0D69489
:100B6000C794B794A7940A94D2F740E050E060E0AD
:100B700070E081E090E0A0E0B0E004C0880F991F31
:100B8000AA1FBB1F2A95D2F70197A109B1098E218F
:100B90009F21A023B1230097A105B10521F041E0D9
:100BA00050E060E070E04A295B296C297D294D8383
:100BB0005E836F8378878EE190E08E1B9F0B9C8312
:100BC0008B8312C0309781F00E2E04C0EE0CFF1CF8
:100BD000001F111F0A94D2F7ED82FE820F8318873F
:100BE000CE1ADF0ADC82CB821A82CE0101960E94E5
:100BF0004C062896EAE00C940218EF92FF920F93AD
:100C00001F937B018C0180E0E81680E0F80681E00C
:100C1000080780E0180788F48FEFE816F104010553
:100C2000110531F028F088E090E0A0E0B0E017C0B6
:100C300080E090E0A0E0B0E012C080E0E81680E044
:100C4000F80680E0080781E0180728F088E190E0C6
:100C5000A0E0B0E004C080E190E0A0E0B0E020E2DD
:100C600030E040E050E0281B390B4A0B5B0B04C01E
:100C700016950795F794E7948A95D2F7F701EA510C
:100C8000FF4F8081281B310941095109C9011F917A
:100C90000F91FF90EF900895DF92EF92FF920F93E4
:100CA0001F93FC01E480F58006811781D18080814B
:100CB000823048F480E090E0A0E1B0E0E82AF92A30
:100CC0000A2B1B2BA5C0843009F49FC0823021F46D
:100CD000EE24FF24870105C0E114F104010511058C
:100CE00019F4E0E0F0E096C0628173819FEF623812
:100CF00079070CF05BC022E83FEF261B370B2A3147
:100D000031052CF020E030E040E050E02AC0B8018E
:100D1000A701022E04C076956795579547950A94CA
:100D2000D2F781E090E0A0E0B0E004C0880F991F06
:100D3000AA1FBB1F2A95D2F70197A109B1098E21DD
:100D40009F21A023B1230097A105B10521F081E0E7
:100D500090E0A0E0B0E09A01AB01282B392B4A2BA0
:100D60005B2BDA01C9018F779070A070B07080346E
:100D70009105A105B10539F427FF09C0205C3F4F5B
:100D80004F4F5F4F04C0215C3F4F4F4F5F4FE0E03C
:100D9000F0E02030A0E03A07A0E04A07A0E45A07BC
:100DA00010F0E1E0F0E079018A0127C060387105B8
:100DB00064F5FB01E158FF4FD801C7018F779070B0
:100DC000A070B07080349105A105B10539F4E7FE3B
:100DD0000DC080E490E0A0E0B0E004C08FE390E0BC
:100DE000A0E0B0E0E80EF91E0A1F1B1F17FF05C0A8
:100DF00016950795F794E794319687E01695079531
:100E0000F794E7948A95D1F705C0EE24FF24870173
:100E1000EFEFF0E06E2F679566276795902F9F772D
:100E2000D794DD24D7948E2F8695492F462B582FA3
:100E30005D29B701CA011F910F91FF90EF90DF90DC
:100E40000895FC01DB01408151812281622F6F777F
:100E500070E0221F2227221F9381892F880F822B67
:100E6000282F30E0991F9927991F11969C9311976D
:100E700021153105A9F5411551056105710511F4DB
:100E800082E037C082E89FEF13969C938E9312976F
:100E90009A01AB0167E0220F331F441F551F6A956B
:100EA000D1F783E08C930DC0220F331F441F551FD1
:100EB00012968D919C911397019713969C938E9304
:100EC0001297203080E0380780E0480780E4580718
:100ED00058F314962D933D934D935C931797089573
:100EE0002F3F310579F4411551056105710519F45C
:100EF00084E08C93089564FF03C081E08C9312C05A
:100F00001C9210C02F57304013963C932E9312978B
:100F100083E08C9387E0440F551F661F771F8A95E7
:100F2000D1F7706414964D935D936D937C931797EE
:100F300008951F93DC01FB019C91923008F447C097
:100F40008081823008F443C0943051F411961C9192
:100F5000843099F58181682F70E0611B71093FC071
:100F6000843021F0923031F48230B9F181818823CC
:100F700089F12DC011961C9111978230F1F0818179
:100F80001817D9F412962D913C9113978281938171
:100F90008217930794F028173907BCF014968D91A7
:100FA0009D910D90BC91A02D248135814681578162
:100FB000281739074A075B0718F4112341F00AC0C4
:100FC00082179307A407B50740F4112319F061E0D5
:100FD00070E005C06FEF7FEF02C060E070E0CB0112
:100FE0001F9108958CB920E030E040E050E0EBE242
:100FF000F0E0808186FD0CC02F5F3F4F4F4F5F4F69
:10100000203884E838078EE1480780E0580789F7E0
:101010000895EBE2F0E080818823ECF78CB108952D
:1010200088E260E00E940D0B89E261E00E940D0BF6
:1010300087E089B9E0E4F0E080818F7E8083808161
:101040008F7D80838081877F8083AAE2B0E08C914E
:101050008B7F8C9380818460808380818260808399
:101060008C9180618C938C9188608C930895E3E5DA
:10107000F0E080818F7B80838081877F8083E9E5BA
:10108000F0E08081816080830895E5E4F0E0808174
:101090008F7B80838081877F8083E9E5F0E080819A
:1010A00080648083089528EE33E040E050E00E94A1
:1010B0007617689415F896958795779567951694A1
:1010C000D1F7272F382F492F55272093030230932C
:1010D00004024093050250930602862F60930B0290
:1010E000662379F0819584BDDA01C9010196A11DBD
:1010F000B11D8093030290930402A0930502B09364
:1011000006020895E5E4F0E08081816080838081BB
:10111000826080838081846080830895E5E4F0E0CC
:1011200080818E7F808380818D7F808380818B7F93
:101130008083089528EE33E040E050E00E94761767
:10114000689415F896958795779567951694D1F7D5
:10115000272F382F492F55272093FA013093FB0171
:101160004093FC015093FD01862F60930202662399
:1011700079F0819582BFDA01C9010196A11DB11DE7
:101180008093FA019093FB01A093FC01B093FD01C1
:101190000895882319F08130C1F40CC0E3E5F0E034
:1011A00080818160808380818D7F80838081846065
:1011B00080830895EEE4F0E0808181608083808107
:1011C0008D7F80838081846080830895882319F0D7
:1011D0008130C1F40CC0E3E5F0E080818E7F808334
:1011E00080818D7F808380818B7F80830895EEE472
:1011F000F0E080818E7F808380818D7F80838081FD
:101200008B7F80830895EF92FF920F931F937A0153
:101210008B018130D1F466B577B580E090E00E9413
:101220008405A80197010E949C0220E030E048EC70
:1012300052E40E94960320E030E040E85FE30E9421
:101240003E020E94C6007BBD6ABD1F910F91FF90B8
:10125000EF9008950E94C90808950E94E608089535
:1012600090932C0280932B02089590932E028093EA
:101270002D0208951F920F920FB60F9211242F93F3
:101280003F934F935F936F937F938F939F93AF930E
:10129000BF93EF93FF938091100290911102A09160
:1012A0001202B09113020196A11DB11D809310028C
:1012B00090931102A0931202B09313022091FA01AD
:1012C0003091FB014091FC015091FD018217930781
:1012D000A407B50789F4E0912B02F0912C0209953F
:1012E0001092100210921102109212021092130228
:1012F00080910202819582BFFF91EF91BF91AF91E2
:101300009F918F917F916F915F914F913F912F911D
:101310000F900FBE0F901F9018951F920F920FB64F
:101320000F9211242F933F934F935F936F937F936B
:101330008F939F93AF93BF93EF93FF9380910C0292
:1013400090910D02A0910E02B0910F020196A11D85
:10135000B11D80930C0290930D02A0930E02B093E6
:101360000F02209103023091040240910502509136
:10137000060282179307A407B50789F4E0912D02AE
:10138000F0912E02099510920C0210920D0210920B
:101390000E0210920F0280910B02819584BDFF9185
:1013A000EF91BF91AF919F918F917F916F915F91DD
:1013B0004F913F912F910F900FBE0F901F90189556
:1013C000882319F0813061F50DC087E161E00E944A
:1013D0000D0BE3E5F0E080818F7E80838081806269
:1013E000808308958DE261E00E940D0BAFE4B0E0D0
:1013F0008C918E7F8C938C9182608C93EEE4F0E0E4
:101400008081886080838081806180838C918F7BE4
:101410008C938C9180688C9384E091E097BD86BD1D
:1014200008959C011CBC81E48EBDE8E5F0E080E2FB
:10143000808384E08083808182958695877080FD9B
:101440000DC082EC2130380748F4808185FD06C04C
:101450002C5F3F4F82EC21303807B8F308959C0190
:101460001DBC1CBC81E08EBDE8E5F0E080E280831D
:1014700084E08083808185FD0DC082EC21303807B7
:1014800048F4808185FD06C02C5F3F4F82EC2130FF
:101490003807B8F30895EF92FF920F931F93E6B4C5
:1014A000F7B42FEF3FEF40E050E00E94761700E0E6
:1014B00010E06E0D7F1D801F911F0E94D20420E05E
:1014C00030E449E654E40E9496031F910F91FF9087
:1014D000EF9008958BE061E00E94A20B83E08A9573
:1014E000F1F78BE060E00E94A20B08950E94010BCF
:1014F00084E089BF8BE061E00E940D0B8EE260E02A
:101500000E940D0B1FBC8FEF82BB08958CE080B949
:10151000E6E5F0E08081846080830895E6E5F0E010
:10152000808180628083808180688083808188233D
:10153000ECF7E1E2F0E08081887F8830E1F7089500
:10154000E6E5F0E08081806180838081806880832F
:101550000895E6E5F0E08081806280838081806884
:10156000808380818823ECF7E1E2F0E08081887F4E
:101570008031E1F70895880F83B9E6E5F0E08081D6
:101580008068808380818823ECF7E1E2F0E080814D
:10159000887F8831E1F70895880F816083B9E6E597
:1015A000F0E080818F7D808380818068808380816E
:1015B0008823ECF7E1E2F0E08081887F8034E1F776
:1015C000089583B9E6E5F0E080818F7D8083808196
:1015D0008068808380818823ECF7E1E2F0E08081FD
:1015E000887F8832E1F70895E6E5F0E080818F7D1D
:1015F000808380818068808380818823ECF783B139
:101600000895EFE5F0E08081806880830895EFE53C
:10161000F0E080818F7780830895282F362F6AE04D
:101620000E949517492F822F0E949517332321F08E
:10163000313009F086C046C08230D1F0833020F4CA
:10164000813009F07EC006C0833001F1843009F09A
:1016500078C02AC0EAE3F0E0208181E090E002C097
:10166000880F991F4A95E2F7809582238083089519
:10167000E7E3F0E0208181E090E002C0880F991F4D
:101680004A95E2F78095822380830895E4E3F0E0B1
:10169000208181E090E002C0880F991F4A95E2F70F
:1016A0008095822380830895E1E3F0E0208181E04A
:1016B00090E002C0880F991F4A95E2F78095822337
:1016C000808308958230B9F0833018F48130C9F5F1
:1016D00005C08330E9F08430A1F527C0EAE3F0E0EB
:1016E000208181E090E002C0880F991F4A95E2F7BF
:1016F000282B20830895E7E3F0E0208181E090E04B
:1017000002C0880F991F4A95E2F7282B208308957D
:10171000E4E3F0E0208181E090E002C0880F991FAF
:101720004A95E2F7282B20830895E1E3F0E0208139
:1017300081E090E002C0880F991F4A95E2F7282BBC
:1017400020830895282F362F6AE00E949517492F8D
:10175000822F0E949517332321F0313009F086C083
:1017600046C08230D1F0833020F4813009F07EC051
:1017700006C0833001F1843009F078C02AC0EBE361
:10178000F0E0208181E090E002C0880F991F4A9527
:10179000E2F78095822380830895E8E3F0E02081DA
:1017A00081E090E002C0880F991F4A95E2F780958A
:1017B000822380830895E5E3F0E0208181E090E0DA
:1017C00002C0880F991F4A95E2F780958223808393
:1017D0000895E2E3F0E0208181E090E002C0880F0C
:1017E000991F4A95E2F7809582238083089582307D
:1017F000B9F0833018F48130C9F505C08330E9F0C1
:101800008430A1F527C0EBE3F0E0208181E090E097
:1018100002C0880F991F4A95E2F7282B208308956C
:10182000E8E3F0E0208181E090E002C0880F991F9A
:101830004A95E2F7282B20830895E5E3F0E0208124
:1018400081E090E002C0880F991F4A95E2F7282BAB
:1018500020830895E2E3F0E0208181E090E002C07F
:10186000880F991F4A95E2F7282B20830895282F87
:101870006AE00E949517392F822F0E9495178230B7
:10188000A1F0833018F4813029F406C08330B1F020
:101890008430E9F080E0089589B390E002C0959526
:1018A00087953A95E2F78170089586B390E002C07B
:1018B000959587953A95E2F78170089583B390E006
:1018C00002C0959587953A95E2F78170089580B3A7
:1018D00090E002C0959587953A95E2F7817008955A
:1018E000282F6AE00E949517392F822F0E949517A2
:1018F0008230B9F0833018F48130C9F505C08330E7
:10190000E9F08430A1F527C0EBE3F0E0208181E02D
:1019100090E002C0880F991F3A95E2F728272083AC
:101920000895E8E3F0E0208181E090E002C0880FB4
:10193000991F3A95E2F7282720830895E5E3F0E020
:10194000208181E090E002C0880F991F3A95E2F76C
:10195000282720830895E2E3F0E0208181E090E0F1
:1019600002C0880F991F3A95E2F72827208308952F
:10197000282F362F6AE00E949517492F822F0E9448
:101980009517332321F0313009F086C046C08230EC
:10199000D1F0833020F4813009F07EC006C083305E
:1019A00001F1843009F078C02AC0EBE3F0E0208137
:1019B00081E090E002C0880F991F4A95E2F7809578
:1019C000822380830895E8E3F0E0208181E090E0C5
:1019D00002C0880F991F4A95E2F780958223808381
:1019E0000895E5E3F0E0208181E090E002C0880FF7
:1019F000991F4A95E2F78095822380830895E2E358
:101A0000F0E0208181E090E002C0880F991F4A95A4
:101A1000E2F780958223808308958230B9F0833085
:101A200018F48130C9F505C08330E9F08430A1F5A0
:101A300027C0EBE3F0E0208181E090E002C0880F56
:101A4000991F4A95E2F7282B20830895E8E3F0E0F8
:101A5000208181E090E002C0880F991F4A95E2F74B
:101A6000282B20830895E5E3F0E0208181E090E0D9
:101A700002C0880F991F4A95E2F7282B208308950A
:101A8000E2E3F0E0208181E090E002C0880F991F3E
:101A90004A95E2F7282B20830895A7E2B0E08C91C5
:101AA0008F7B8C938C918F778C93E6E2F0E0808132
:101AB0008E7F808380818260808380818460808348
:101AC0008C918F7D8C938081806880830895E7E27C
:101AD000F0E09081907E908390818770892B808345
:101AE000E6E2F0E0808180648083808184FDFDCF28
:101AF000E6E2F0E080818061808384B195B1089551
:101B0000E7E2F0E080818064808380818F7780834A
:101B100080818F7D8083E6E2F0E080818160808338
:101B20008081826080838081846080838081806204
:101B30008083808180688083808180648083089531
:101B4000E7E2F0E09081907E892B808320E030E016
:101B500040E050E0E6E2F0E0808184FD0CC02F5FC1
:101B60003F4F4F4F5F4F203884E838078EE14807DA
:101B700080E0580789F724B135B1822F932F08955B
:101B80000E94090808951F93CF93DF93EC01888189
:101B9000882351F010E00E94F2071F5FFE01E10F61
:101BA000F11D80818823B9F7DF91CF911F910895AE
:101BB0000E94F20708950E94100808952F923F9204
:101BC0004F925F926F927F928F929F92AF92BF924D
:101BD000CF92DF92EF92FF920F931F93DF93CF93F9
:101BE00000D000D0CDB7DEB77B018C012AE030E019
:101BF00040E050E00E94A117B62EC801B7012AE0CC
:101C000030E040E050E00E94A117CA01B9012AE08B
:101C100030E040E050E00E94A117C62EC801B70195
:101C200024E630E040E050E00E94A117CA01B9016B
:101C30002AE030E040E050E00E94A117D62EC80113
:101C4000B70128EE33E040E050E00E94A1178B2D51
:101C5000869581708A838B2D869586958170898380
:101C60008B2D8695869586952224239428228C2D6B
:101C700086953324339438228C2D8695869544247A
:101C8000439448228C2D86958695869555245394A9
:101C900058228D2D86956624639468228D2D869515
:101CA00086957724739478228D2D869586958695D2
:101CB000882483948822822F86959924939498224D
:101CC000822F86958695AA24A394A822822F869592
:101CD00086958695FF24F394F8221C821B8281E06E
:101CE000B8220AEF10E0C822D822EE24E394E222C0
:101CF00084E16B2D0E94A20B85E16A810E94A20BF8
:101D000086E169810E94A20B88E1622D0E94A20BEC
:101D10008DE060E00E94A20BC8010197F1F78DE011
:101D200061E00E94A20B84E16C2D0E94A20B85E170
:101D3000632D0E94A20B86E1642D0E94A20B88E114
:101D4000652D0E94A20B8CE060E00E94A20BC801EE
:101D50000197F1F78CE061E00E94A20B84E16D2D08
:101D60000E94A20B85E1662D0E94A20B86E1672DE1
:101D70000E94A20B88E1682D0E94A20B89E160E01D
:101D80000E94A20BC8010197F1F789E161E00E946E
:101D9000A20B84E16E2D0E94A20B85E1692D0E94A9
:101DA000A20B86E16A2D0E94A20B88E16F2D0E9492
:101DB000A20B8AE160E00E94A20BC8010197F1F733
:101DC0008AE161E00E94A20BEB81FC813196FC83E9
:101DD000EB83E83CF10509F08BCF0F900F900F904B
:101DE0000F90CF91DF911F910F91FF90EF90DF90B7
:101DF000CF90BF90AF909F908F907F906F905F90AB
:101E00004F903F902F90089584E161E00E940D0B68
:101E100085E161E00E940D0B86E161E00E940D0BFF
:101E200088E161E00E940D0B8DE061E00E940D0BE6
:101E30008CE061E00E940D0B89E161E00E940D0BD6
:101E40008AE161E00E940D0B8DE061E00E94A20B2F
:101E50008CE061E00E94A20B89E161E00E94A20B8C
:101E60008AE161E00E94A20B08958130D1F08130B7
:101E700030F0823051F1833009F04BC03AC08FE22C
:101E80000E94370C882309F044C084EC99E0019744
:101E9000F1F78FE20E94370C882309F43DC081E0FE
:101EA00008958EE20E94370C882399F584EC99E01E
:101EB0000197F1F78EE20E94370C882351F58EE2EC
:101EC0000E94370C8823D9F326C08DE20E94370C7C
:101ED0008823F9F484EC99E00197F1F78DE20E94F0
:101EE000370C8823B1F48DE20E94370C8823D9F394
:101EF00012C08BE20E94370C882359F484EC99E0DD
:101F00000197F1F78BE20E94370C882329F081E0DA
:101F1000089581E0089580E00895813061F0813076
:101F200028F0823069F08330A1F40FC08FE260E0C6
:101F30000E940D0B08958EE260E00E940D0B089543
:101F40008DE260E00E940D0B08958BE260E00E943C
:101F50000D0B0895823071F0833018F48130A9F4AC
:101F600005C0833059F0843081F40CC080E10E94B8
:101F7000700C08958FE00E94700C08958EE00E940E
:101F8000700C08958BE10E94700C0895823051F11D
:101F9000833020F4813009F05DC007C0833009F43C
:101FA00034C0843009F056C043C080E161E00E9433
:101FB000A20B28E833E149E150E0CA010197F1F7AB
:101FC00021503040D1F780E160E00E94A20B28E868
:101FD00033E149E150E0CA010197F1F72150304067
:101FE000D1F708958FE061E00E94A20B28E833E169
:101FF00049E150E0CA010197F1F721503040D1F793
:102000008FE060E00E94A20B08958EE061E00E94E4
:10201000A20B28E833E149E150E0CA010197F1F74A
:1020200021503040D1F78EE060E00E94A20B08956D
:102030008BE161E00E94A20B28E833E149E150E026
:10204000CA010197F1F721503040D1F78BE160E0F0
:102050000E94A20B0895823079F0833018F4813009
:10206000C9F405C0833069F08430A1F40FC080E169
:1020700060E00E94A20B08958FE060E00E94A20B36
:1020800008958EE060E00E94A20B08958BE160E06D
:102090000E94A20B0895823079F0833018F48130C9
:1020A000C9F405C0833069F08430A1F40FC080E129
:1020B00061E00E94A20B08958FE061E00E94A20BF4
:1020C00008958EE061E00E94A20B08958BE161E02B
:1020D0000E94A20B0895823079F0833018F4813089
:1020E000C9F405C0833069F08430A1F40FC080E1E9
:1020F00061E00E940D0B08958FE061E00E940D0BDE
:1021000008958EE061E00E940D0B08958BE161E07F
:102110000E940D0B0895EF92FF921F93182F8DE0F0
:1021200060E00E94A20B612F62956F70617084E184
:102130000E94A20B612F629566956770617085E1C0
:102140000E94A20B612F629566956695637061701F
:1021500086E10E94A20B612F661F6627661F88E139
:102160000E94A20B8CE061E00E94A20B0F2EFAEFFE
:10217000EF2EFF24F02DC7010197F1F78CE060E00E
:102180000E94A20BC7010197F1F7612F617084E1F2
:102190000E94A20B612F6695617085E10E94A20BDF
:1021A000612F66956695617086E10E94A20B169577
:1021B00016951695117088E1612F0E94A20B8CE094
:1021C00061E00E94A20BC7010197F1F78CE060E08B
:1021D0000E94A20B82EE94E00197F1F71F91FF900D
:1021E000EF900895DF93CF9300D000D0CDB7DEB746
:1021F00090E8998390EC9A8394E99B8394ED9C8377
:10220000FE01E80FF11D8181860F0E948B100F9057
:102210000F900F900F90CF91DF91089581E00E9471
:102220008B100895EF92FF921F93182F8DE061E0BD
:102230000E94A20B612F62956F70617084E10E9411
:10224000A20B612F629566956770617085E10E94AF
:10225000A20B612F6295669566956370617086E149
:102260000E94A20B612F661F6627661F88E10E94ED
:10227000A20B8CE061E00E94A20B0F2EFAEFEF2E72
:10228000FF24F02DC7010197F1F78CE060E00E9478
:10229000A20BC7010197F1F7612F617084E10E94E1
:1022A000A20B612F6695617085E10E94A20B612FE0
:1022B00066956695617086E10E94A20B169516954B
:1022C0001695117088E1612F0E94A20B8CE061E0ED
:1022D0000E94A20BC7010197F1F78CE060E00E9419
:1022E000A20B82EE94E00197F1F71F91FF90EF901F
:1022F0000895AF92BF92CF92DF92EF92FF920F9329
:10230000DF93CF93CDB7DEB72C970FB6F894DEBF2F
:102310000FBECDBF6B017C0199235CF4F094E09477
:10232000D094C094C11CD11CE11CF11C8DE20E9410
:102330001211FE0131968AE0DF011D928A95E9F7BC
:1023400000E05F01802F992787FD9095F501E80F48
:10235000F91FFC87EB87C701B6012AE030E040E0B7
:1023600050E00E94C317AB85BC856C93C701B601D2
:102370002AE030E040E050E00E94C317822F932F04
:10238000A42FB52F6C017D010F5FC114D104E104AE
:10239000F104C1F6101694F47E010894E11CF11CBE
:1023A0000150802F992787FD9095F701E80FF91FBD
:1023B0008081805D0E941211101694F32C960FB646
:1023C000F894DEBF0FBECDBFCF91DF910F91FF908C
:1023D000EF90DF90CF90BF90AF9008951F93CF9371
:1023E000DF93EC018881882351F010E00E941211E4
:1023F0001F5FFE01E10FF11D80818823B9F7DF9196
:10240000CF911F91089584E161E00E940D0B85E159
:1024100061E00E940D0B86E161E00E940D0B88E1F6
:1024200061E00E940D0B8DE061E00E940D0B8CE0DD
:1024300061E00E940D0B83E30E948B1082E30E94F7
:102440008B1088E20E948B108CE00E948B1082E03F
:102450000E948B1081E00E948B1008952F923F9272
:102460004F925F926F927F928F929F92AF92BF92A4
:10247000CF92DF92EF92FF920F931F93DF93CF9350
:10248000CDB7DEB769970FB6F894DEBF0FBECDBFEC
:1024900083E2898382E28A8381E28B8380E28C8378
:1024A0008FE28D838EE28E838DE28F838BE288872D
:1024B000DE011996E9EEF1E080E101900D92815084
:1024C000E1F781E0898FCC24DD241E010894211CD2
:1024D000311C0F2EF5E08F2E9924F02D8C0E9D1EB1
:1024E0000F2EF0E14F2EF7E25F2EF02D3601F101B5
:1024F000EC0DFD1DE0808E2D60E00E94A20B00E03F
:1025000010E05801F401E00FF11FF0808F2D0E94C0
:10251000370C8823D1F4C2010197F1F78F2D0E9467
:10252000370C882391F48F2D0E94370C8823D9F320
:10253000C301880F991F880F991FF101E80FF91F38
:10254000EA0DFB1D8085898F05C00F5F1F4F04308A
:102550001105B9F68E2D61E00E94A20B0894C11CF2
:10256000D11C84E0C816D10409F0C0CF898D6996CA
:102570000FB6F894DEBF0FBECDBFCF91DF911F9194
:102580000F91FF90EF90DF90CF90BF90AF909F9012
:102590008F907F906F905F904F903F902F90089515
:1025A00083E261E00E940D0B82E261E00E940D0B6C
:1025B00081E261E00E940D0B80E261E00E940D0B60
:1025C00083E261E00E94A20B82E261E00E94A20B22
:1025D00081E261E00E94A20B80E261E00E94A20B16
:1025E0008FE260E00E940D0B8EE260E00E940D0B16
:1025F0008DE260E00E940D0B8BE260E00E940D0B0B
:1026000008950F931F93182F062F0E948E0A1065AE
:10261000812F0E94BB0A802F0E94E10A0E94A90A12
:10262000812F0E94CC0A0E94F40A182F0E94A00A4F
:10263000812F1F910F910895FF920F931F93182FD1
:10264000062FF42E0E948E0A812F80650E94BB0AFD
:10265000802F0E94E10A8F2D0E94E10A0E94A00AA9
:102660001F910F91FF9008950E94860A28E833E198
:1026700049E150E0CA010197F1F721503040D1F70C
:1026800008950F931F9384E261E00E94A20B00E281
:102690001EE4C8010197F1F784E260E00E94A20BFA
:1026A00088E99AE30197F1F784E261E00E94A20BC6
:1026B000C8010197F1F784E260E00E94A20B1F912C
:1026C0000F91089584E261E00E94A20B80E29EE4F3
:1026D0000197F1F784E260E00E94A20B089584E282
:1026E00060E00E94A20B089584E261E00E94A20BC8
:1026F000089584E20E94700C089584E261E00E94D3
:102700000D0B0895EAE2F0E0808188618083E0E4C7
:10271000F0E080818668808387E689B91082089519
:102720008BB188236CF020E030E0EBE2F0E08081B8
:10273000882334F02F5F3F4F87E0203D3807B9F7FB
:102740008CB10895982FEBE2F0E0808185FFFDCFFA
:102750009CB908951F93CF93DF93EC018881882360
:1027600051F010E00E94A2131F5FFE01E10FF11D66
:1027700080818823B9F7DF91CF911F9108951F922F
:102780000F920FB60F9211248F939F9380911E0288
:1027900090911F02019690931F0280931E029F91B9
:1027A0008F910F900FBE0F901F9018952F923F9210
:1027B0004F925F926F927F928F929F92AF92BF9251
:1027C000CF92DF92EF92FF920F931F93CF93DF93FD
:1027D0000E94760A0E9403120E9445080E94010B83
:1027E00060ED77E080E090E00E94530882E00E9474
:1027F0006B1080E061E00E94F21080E690E00E94A1
:10280000EE110E94341388EB9BE020E931E0F901DE
:102810003197F1F70197D9F780E061E00E94011349
:102820008C3279F481E08093240284E00E944B1082
:1028300080E06CE00E94F21089E690E00E94EE11C8
:102840000FC08C3369F41092240284E00E942B1094
:1028500080E06CE00E94F21082E790E00E94EE11AE
:1028600080E064E00E940113843121F481E08093D0
:10287000250204C08E3111F41092250280E197E206
:1028800020E931E0F9013197F1F70197D9F780E0BC
:1028900065E00E940113E82E83E06BE00E94F210D5
:1028A000FF2400E010E0C801B7010E94791183E025
:1028B00060E00E94F2108CE790E00E94EE110E940E
:1028C000800D8AE061E00E94A20B0E94821383E0E7
:1028D0000E948D0F84E00E946B1080E00E948D0F9B
:1028E00081E00E946B1082E00E948D0F83E00E94C5
:1028F0006B1082E00E946B1085E261E00E940D0B7C
:1029000081E161E00E940D0BBB24DD240F2EF8E174
:102910004F2EF2E05F2EF02D0F2EF4E12F2EF2E07D
:102920003F2EF02D0F2EF4EF8F2EF1E09F2EF02D85
:10293000C0E9D1E00F2EFFE26F2EF2E07F2EF02DE6
:102940000F2EF7E0AF2EF02D05C0C701B6010E9493
:10295000C600D62E0E946A0AC2010E94110A109275
:102960001F0210921E02C1010E942F0A80911402C0
:1029700090911502A0911602B09117028050924CCE
:10298000AB4EBB4069F08091180290911902A09162
:102990001A02B0911B028050924CAB4EBB4041F4E6
:1029A00082E06AE00E94F21087E890E00E94EE1157
:1029B0000E94901380932A0260911E0270911F0260
:1029C000882777FD8095982F0E944B0A60933D02DF
:1029D00070933E0280933F02909340020E94C60093
:1029E0009B01AC0180E065E0422F0E941C13E09047
:1029F0003D02F0903E0200913F0210914002C8015A
:102A0000B70120E030E040EA50E40E94420418168A
:102A10003CF480912402813019F40E944B1010C0C4
:102A2000C801B70120E030E040EA50E40E94A2046F
:102A3000882334F480912402813011F40E942B10F9
:102A400080912402882339F480912202882319F48A
:102A500081E00E942B1060913D0270913E028091B6
:102A60003F02909140020E94C600D61679F4B394BA
:102A700081E060E00E94F2106B2D70E080E090E059
:102A80000E94791188E2B81669F024C080E060E005
:102A90000E94F2108CE890E00E94EE1110921C024D
:102AA000BB2418C081E060E00E94F21060E070E09A
:102AB00080E090E00E9479110E940E1180E068E0B1
:102AC0000E94F21088E990E00E94EE1181E080936C
:102AD0001C02BB24C0903D02D0903E02E0903F0219
:102AE000F090400280E00E94A00D9093210280931C
:102AF000200223E08F3F920771F40E940E1180E0C4
:102B000068E00E94F21084EA90E00E94EE1181E0F9
:102B100080931C0218C0845F914058F081E069E006
:102B20000E94F2108EEA90E00E94EE1110921C02B8
:102B30000AC081E069E00E94F21087EB90E00E94F9
:102B4000EE1110921C029401CE010197F1F7215071
:102B50003040D1F780911C02882309F0F6CE6091B5
:102B60003D0270913E0280913F029091400242E00E
:102B700022E083010E94151882E060E00E94F210BA
:102B8000F30101900020E9F731978E2F9F2FDC0190
:102B9000EEEBF0E08A2D01900D928150E1F7C30138
:102BA0000E94EE1120ED37E0CE010197F1F72150A0
:102BB0003040D1F780E00E94350F982F8093E701D5
:102BC000882321F080912A02813649F490E0809197
:102BD0002202882309F491E0909322020DC09130E3
:102BE00059F480912402882339F4809122028823A9
:102BF00019F481E00E942B10809122028130B9F4F7
:102C0000809323021092240284E00E942B1081E022
:102C10000E944B1080E06CE00E94F21082E790E08E
:102C20000E94EE1180E061E04CE30E941C13809151
:102C30002202882319F481E00E942B108091E70181
:102C4000882379F560913D0270913E0280913F02A8
:102C50009091400220E030E040EA50E40E94A2045B
:102C60008823FCF4809124028130D9F480932302DC
:102C700084E00E942B1081E00E944B108AE161E009
:102C80000E94A20B80E06CE00E94F21085EC90E0C4
:102C90000E94EE1180E061E04CE30E941C13109250
:102CA000240280E00E94350F8093E701882321F001
:102CB00080912A02883641F490E080911D02882399
:102CC00009F491E090931D0210911D02113059F505
:102CD00060913D0270913E0280913F0290914002CE
:102CE00020E030E040EA50E40E94A20488233CF453
:102CF00082E00E944B1010911D021130A1F46091EE
:102D00003D0270913E0280913F029091400220E08E
:102D100030E040EA50E40E944204181624F482E0B5
:102D20000E942B1005C0112319F482E00E942B1081
:102D300083E00E94350F8093E601882321F0809183
:102D40002A02823641F48091240290E0882309F41B
:102D500091E09093240280912402813091F484E0E8
:102D60000E944B101092230280E06CE00E94F2104F
:102D70008EEC90E00E94EE1180E061E04CE20E9457
:102D80001C1380912402882381F484E00E942B107C
:102D900080E06CE00E94F21085EC90E00E94EE1161
:102DA00080E061E04CE30E941C1382E00E94350F3A
:102DB0008093E801809125028130C9F42CE231E052
:102DC000CE010197F1F721503040D1F783E00E9406
:102DD000AA0F85E20E94700C81E10E94700C2CE227
:102DE00031E0CE010197F1F721503040D1F79091B9
:102DF000E801992329F080912A02833609F0A5CDB4
:102E0000209125022223B9F481E0809325029401C8
:102E1000CE010197F1F721503040D1F780E064E016
:102E200044E10E941C139401CE010197F1F7215057
:102E30003040D1F78ACD992329F080912A02833638
:102E400009F083CD213009F080CD9401CE010197A6
:102E5000F1F721503040D1F780E064E04EE10E946C
:102E60001C139401CE010197F1F721503040D1F7A6
:102E700085E260E00E94A20B81E160E00E94A20B6B
:102E800083E00E942B10109225025FCD84E00E9407
:102E9000AA0F0E948E081092230280912402813092
:102EA00081F41092240280E06CE00E94F21085ED23
:102EB00090E00E94EE1180E061E04CE30E941C1360
:102EC000089580912402882381F481E08093240274
:102ED00080E06CE00E94F21089E690E00E94EE1122
:102EE00080E061E04CE20E941C130895629FD001D3
:102EF000739FF001829FE00DF11D649FE00DF11DB5
:102F0000929FF00D839FF00D749FF00D659FF00D63
:102F10009927729FB00DE11DF91F639FB00DE11D50
:102F2000F91FBD01CF0111240895991B79E004C058
:102F3000991F961708F0961B881F7A95C9F78095F8
:102F40000895A1E21A2EAA1BBB1BFD010DC0AA1FEA
:102F5000BB1FEE1FFF1FA217B307E407F50720F002
:102F6000A21BB30BE40BF50B661F771F881F991F7D
:102F70001A9469F760957095809590959B01AC01C6
:102F8000BD01CF01089597FB092E05260ED057FDF0
:102F900004D0D7DF0AD0001C38F450954095309506
:102FA00021953F4F4F4F5F4F0895F6F790958095CD
:102FB000709561957F4F8F4F9F4F08952F923F924D
:102FC0004F925F926F927F928F929F92AF92BF9239
:102FD000CF92DF92EF92FF920F931F93CF93DF93E5
:102FE000CDB7DEB7CA1BDB0B0FB6F894DEBF0FBE42
:102FF000CDBF09942A88398848885F846E847D848F
:103000008C849B84AA84B984C884DF80EE80FD8090
:103010000C811B81AA81B981CE0FD11D0FB6F89406
:10302000DEBF0FBECDBFED010895EF92FF920F936B
:103030001F93F22FF02E47FD02C0E4E001C0E4E14F
:10304000242F332727FD309537FF03C03095219576
:103050003F4F4F2D512F0F2FEE2E0E9436188F2DE0
:10306000912F1F910F91FF90EF900895A9E0B0E08C
:10307000ECE3F8E10C94E2176A01122FA02EBE2CAB
:103080002BE3201718F42CE3922E02C0902E939479
:10309000AE014F5F5F4F27E0092D0E949819BC01D8
:1030A0008981E82EFF24C70189709070019711F47F
:1030B000ADE209C0B1FE02C0ABE205C0B0FC02C087
:1030C000A0E001C0A0E2E3FE3BC0AA2311F423E08C
:1030D00001C024E0211710F020E002C0121B212FB4
:1030E000EB2CB4FE02C0322F0AC0F601322F80E270
:1030F00002C0819331503323E1F7C20ED11CAA23C1
:1031000019F0F601A1936F01F6013196E2FE05C0B8
:103110009EE4D6019C9381E404C09EE6D6019C9374
:1031200081E611968C9391833296DF01832F90E292
:1031300002C09D9381508823E1F7E30FF11D40C049
:10314000E2FE42C0AA2311F423E001C024E02117CB
:1031500010F020E002C0121B212FEB2CB4FE02C0A5
:10316000922F0AC0F601922F80E202C08193915003
:103170009923E1F7C20ED11CAA2319F0F601A193FD
:103180006F01F6013196E2FE08C089E4D6018C9306
:103190008EE411968C9386E407C089E6D6018C9361
:1031A0008EE611968C9386E681833296DF01892F15
:1031B00020E202C02D9381508823E1F7E90FF11D31
:1031C00010822EEF3FEFAFC0161617061CF041E03D
:1031D00050E003C0AB014F5F5F4FAA2019F480E0BD
:1031E00090E003C08A2D90E0019620E030E0AA2311
:1031F00011F021E030E0240F351F280F391F812FF7
:1032000090E02817390714F020E002C0121B212F8C
:103210004B2D50E0CA0180719070B4FC0DC0B3FC1E
:103220000BC0F601322F40E202C0419331503323EC
:10323000E1F7C20ED11C01C0322FAA2319F0F6010A
:10324000A1936F01892B11F0132F0AC0F601132FE0
:1032500080E302C0819311501123E1F7C30ED11C0A
:10326000092D060FBA8090E1892E912C8E209F2087
:10327000E4FE04C0F1E3BF1609F40150101614F087
:1032800001E003C0093008F008E09B0177FF02C0AD
:1032900020E030E0CB010196821B930BFE013196BA
:1032A000E80FF91F8EE2F82E3B01601A71088A2D93
:1032B00090E044275527481B590B8FEF2F3F3807C5
:1032C00019F4D601FD926D01621773072CF0621696
:1032D000730614F4808101C080E3215030403196A0
:1032E0002417350724F0D6018D936D01E6CF2617FC
:1032F000370749F4B5E3BB1528F0BB1621F4811458
:10330000910409F481E3F6018193D601812F90E2C3
:1033100002C09C93815011968823D9F7E10FF11DCB
:10332000108220E030E0C9012996EEE00C94FE17EF
:10333000283008F027E03327DA01990F311D87FD87
:10334000916000966105710539F432602E5F3D93FE
:1033500030E32A95E1F708959F3F30F080387105FA
:10336000610509F03C5F3C5F3D93913008F0806857
:10337000911DDF93CF931F930F93FF92EF92192F1D
:10338000987F9695E92F96959695E90FFF27E25538
:10339000FF4F99273327EE24FF24A701E70105906B
:1033A0000894079428F4360FE71EF81E491F511D94
:1033B000660F771F881F991F0694A1F70590079441
:1033C00028F4E70EF81E491F561FC11D770F881FEE
:1033D000991F661F0694A1F70590079428F4F80E2C
:1033E000491F561FC71FD11D880F991F661F771FC2
:1033F0000694A1F70590079420F4490F561FC71FA4
:10340000D81F990F661F771F881F0694A9F784910C
:103410001095177041F0D695C79557954795F79435
:10342000E7941A95C1F7E4E5F0E0689415901591DA
:1034300035916591959105907FE27395E118F10AB8
:10344000430B560BC90BD009C0F7E10CF11E431F0B
:10345000561FC91FD01D7EF4703311F48A95E6CF34
:10346000E894015030F0080F0AF40027021708F41E
:10347000202F2395022F7A3328F079E37D932A9524
:10348000E9F710C07D932A9589F60694979567957C
:10349000379517951794E118F10A430B560BC90B92
:1034A000D00998F023957E9173957A3308F070E3F4
:1034B0007C932013B8F77E9170617D9330F08395F3
:1034C00071E37D9370E32A95E1F71124EF90FF906B
:1034D0000F911F91CF91DF91992787FD90950895C6
:0434E000F894FFCF8E
:1034E4002020434353203A20002020206F6E2020C8
:1034F40020002020206F6666202020006C617374F9
:1035040020756C72613A006661696C002020434347
:1035140053203A202020200020556C7472612046EC
:1035240061696C00204C4452204661696C00204E55
:10353400696768742020002044617920200020639A
:103544006D202020002020206F666620200020208F
:10355400206F6E200020206F66662020200000006F
:10356400000000000000000102020303030304043E
:1035740004040404040405050505050505050505FD
:1035840005050505050506060606060606060606DD
:1035940006060606060606060606060606060606C7
:1035A40006060606060607070707070707070707AD
:1035B4000707070707070707070707070707070797
:1035C4000707070707070707070707070707070787
:1035D4000707070707070707070707070707070777
:1035E400070707070707080808080808080808085D
:1035F4000808080808080808080808080808080847
:103604000808080808080808080808080808080836
:103614000808080808080808080808080808080826
:103624000808080808080808080808080808080816
:103634000808080808080808080808080808080806
:1036440008080808080808080808080808080808F6
:1036540008080808080808080808080808080808E6
:1036640008080808080801010131323341343536AD
:0A36740042373839432A302344005E
:00000001FF
